{
  "_format": "hh-sol-artifact-1",
  "contractName": "VoterDataMerkle",
  "sourceName": "contracts/VoterDataMerkle.sol",
  "abi": [
    {
      "inputs": [
        {
          "internalType": "uint256",
          "name": "_votingId",
          "type": "uint256"
        },
        {
          "internalType": "bytes32",
          "name": "_leaf",
          "type": "bytes32"
        },
        {
          "internalType": "bytes32",
          "name": "_newRoot",
          "type": "bytes32"
        }
      ],
      "name": "addLeaf",
      "outputs": [],
      "stateMutability": "nonpayable",
      "type": "function"
    },
    {
      "inputs": [
        {
          "internalType": "address",
          "name": "_voter",
          "type": "address"
        },
        {
          "internalType": "uint256",
          "name": "_votingId",
          "type": "uint256"
        },
        {
          "internalType": "uint256",
          "name": "_candidateId",
          "type": "uint256"
        },
        {
          "internalType": "uint256",
          "name": "_timeStamp",
          "type": "uint256"
        }
      ],
      "name": "addVoterHistory",
      "outputs": [],
      "stateMutability": "nonpayable",
      "type": "function"
    },
    {
      "inputs": [
        {
          "internalType": "uint256",
          "name": "_votingId",
          "type": "uint256"
        },
        {
          "internalType": "bytes32",
          "name": "_leaf",
          "type": "bytes32"
        }
      ],
      "name": "checkLeaf",
      "outputs": [
        {
          "internalType": "bool",
          "name": "",
          "type": "bool"
        }
      ],
      "stateMutability": "view",
      "type": "function"
    },
    {
      "inputs": [
        {
          "internalType": "uint256",
          "name": "_votingId",
          "type": "uint256"
        }
      ],
      "name": "getLeaves",
      "outputs": [
        {
          "internalType": "bytes32[]",
          "name": "",
          "type": "bytes32[]"
        }
      ],
      "stateMutability": "view",
      "type": "function"
    },
    {
      "inputs": [
        {
          "internalType": "address",
          "name": "_voter",
          "type": "address"
        }
      ],
      "name": "getVoterHistory",
      "outputs": [
        {
          "components": [
            {
              "internalType": "uint256",
              "name": "votingId",
              "type": "uint256"
            },
            {
              "internalType": "uint256",
              "name": "candidateId",
              "type": "uint256"
            },
            {
              "internalType": "uint256",
              "name": "timeStamp",
              "type": "uint256"
            }
          ],
          "internalType": "struct VoterDataMerkle.History[]",
          "name": "",
          "type": "tuple[]"
        }
      ],
      "stateMutability": "view",
      "type": "function"
    },
    {
      "inputs": [
        {
          "internalType": "uint256",
          "name": "_votingId",
          "type": "uint256"
        },
        {
          "internalType": "bytes32",
          "name": "_root",
          "type": "bytes32"
        }
      ],
      "name": "setRoot",
      "outputs": [],
      "stateMutability": "nonpayable",
      "type": "function"
    },
    {
      "inputs": [
        {
          "internalType": "uint256",
          "name": "_votingId",
          "type": "uint256"
        },
        {
          "internalType": "bytes32[]",
          "name": "proof",
          "type": "bytes32[]"
        },
        {
          "internalType": "bytes32",
          "name": "leaf",
          "type": "bytes32"
        }
      ],
      "name": "verify",
      "outputs": [
        {
          "internalType": "bool",
          "name": "",
          "type": "bool"
        }
      ],
      "stateMutability": "view",
      "type": "function"
    },
    {
      "inputs": [
        {
          "internalType": "address",
          "name": "",
          "type": "address"
        },
        {
          "internalType": "uint256",
          "name": "",
          "type": "uint256"
        }
      ],
      "name": "voterHistory",
      "outputs": [
        {
          "internalType": "uint256",
          "name": "votingId",
          "type": "uint256"
        },
        {
          "internalType": "uint256",
          "name": "candidateId",
          "type": "uint256"
        },
        {
          "internalType": "uint256",
          "name": "timeStamp",
          "type": "uint256"
        }
      ],
      "stateMutability": "view",
      "type": "function"
    },
    {
      "inputs": [
        {
          "internalType": "uint256",
          "name": "",
          "type": "uint256"
        },
        {
          "internalType": "uint256",
          "name": "",
          "type": "uint256"
        }
      ],
      "name": "votingToLeaves",
      "outputs": [
        {
          "internalType": "bytes32",
          "name": "",
          "type": "bytes32"
        }
      ],
      "stateMutability": "view",
      "type": "function"
    },
    {
      "inputs": [
        {
          "internalType": "uint256",
          "name": "",
          "type": "uint256"
        }
      ],
      "name": "votingToRoot",
      "outputs": [
        {
          "internalType": "bytes32",
          "name": "",
          "type": "bytes32"
        }
      ],
      "stateMutability": "view",
      "type": "function"
    }
  ],
  "bytecode": "0x608060405234801561001057600080fd5b50610f2f806100206000396000f3fe608060405234801561001057600080fd5b506004361061009e5760003560e01c8063a0a1174b11610066578063a0a1174b14610181578063be9f9e791461019d578063d5b65320146101cd578063db21af40146101fd578063f8b122761461022d5761009e565b8063048f06f2146100a3578063167580cc146100bf578063382a22ab146100ef57806362506e721461011f578063923bee461461014f575b600080fd5b6100bd60048036038101906100b891906109e4565b610249565b005b6100d960048036038101906100d49190610978565b610264565b6040516100e69190610c8b565b60405180910390f35b61010960048036038101906101049190610a6f565b6102d3565b6040516101169190610ca6565b60405180910390f35b6101396004803603810190610134919061094f565b610304565b6040516101469190610ca6565b60405180910390f35b610169600480360381019061016491906108b0565b61031c565b60405161017893929190610ce1565b60405180910390f35b61019b600480360381019061019691906108ec565b610363565b005b6101b760048036038101906101b29190610887565b61040c565b6040516101c49190610c69565b60405180910390f35b6101e760048036038101906101e291906109e4565b6104ce565b6040516101f49190610c8b565b60405180910390f35b6102176004803603810190610212919061094f565b6105c2565b6040516102249190610c47565b60405180910390f35b61024760048036038101906102429190610a20565b610633565b005b80600080848152602001908152602001600020819055505050565b6000806000808781526020019081526020016000205490506102c8858580806020026020016040519081016040528093929190818152602001838360200280828437600081840152601f19601f820116905080830192505050505050508285610735565b915050949350505050565b600160205281600052604060002081815481106102ef57600080fd5b90600052602060002001600091509150505481565b60006020528060005260406000206000915090505481565b6002602052816000526040600020818154811061033857600080fd5b9060005260206000209060030201600091509150508060000154908060010154908060020154905083565b600260008573ffffffffffffffffffffffffffffffffffffffff1673ffffffffffffffffffffffffffffffffffffffff1681526020019081526020016000206040518060600160405280858152602001848152602001838152509080600181540180825580915050600190039060005260206000209060030201600090919091909150600082015181600001556020820151816001015560408201518160020155505050505050565b60606000600260008473ffffffffffffffffffffffffffffffffffffffff1673ffffffffffffffffffffffffffffffffffffffff168152602001908152602001600020805480602002602001604051908101604052809291908181526020016000905b828210156104bf578382906000526020600020906003020160405180606001604052908160008201548152602001600182015481526020016002820154815250508152602001906001019061046f565b50505050905080915050919050565b60008060006001600086815260200190815260200160002080548060200260200160405190810160405280929190818152602001828054801561053057602002820191906000526020600020905b81548152602001906001019080831161051c575b5050505050905060008151141561054a57600191506105b7565b60005b81518110156105b55784828281518110610590577f4e487b7100000000000000000000000000000000000000000000000000000000600052603260045260246000fd5b6020026020010151146105a257600192505b80806105ad90610ded565b91505061054d565b505b819250505092915050565b606060006001600084815260200190815260200160002080548060200260200160405190810160405280929190818152602001828054801561062357602002820191906000526020600020905b81548152602001906001019080831161060f575b5050505050905080915050919050565b60007fcfee7c08a98f4b565d124c7e4e28acc52e1bc780e3887db0a02a7d2d5bc6672860001b9050600061066785856104ce565b905060011515811515146106b0576040517f08c379a00000000000000000000000000000000000000000000000000000000081526004016106a790610cc1565b60405180910390fd5b600160008681526020019081526020016000208490806001815401808255809150506001900390600052602060002001600090919091909150556001600086815260200190815260200160002082908060018154018082558091505060019003906000526020600020016000909190919091505561072e8584610249565b5050505050565b600082610742858461074c565b1490509392505050565b60008082905060005b84518110156107dc576000858281518110610799577f4e487b7100000000000000000000000000000000000000000000000000000000600052603260045260246000fd5b602002602001015190508083116107bb576107b483826107e7565b92506107c8565b6107c581846107e7565b92505b5080806107d490610ded565b915050610755565b508091505092915050565b600082600052816020526040600020905092915050565b60008135905061080d81610eb4565b92915050565b60008083601f84011261082557600080fd5b8235905067ffffffffffffffff81111561083e57600080fd5b60208301915083602082028301111561085657600080fd5b9250929050565b60008135905061086c81610ecb565b92915050565b60008135905061088181610ee2565b92915050565b60006020828403121561089957600080fd5b60006108a7848285016107fe565b91505092915050565b600080604083850312156108c357600080fd5b60006108d1858286016107fe565b92505060206108e285828601610872565b9150509250929050565b6000806000806080858703121561090257600080fd5b6000610910878288016107fe565b945050602061092187828801610872565b935050604061093287828801610872565b925050606061094387828801610872565b91505092959194509250565b60006020828403121561096157600080fd5b600061096f84828501610872565b91505092915050565b6000806000806060858703121561098e57600080fd5b600061099c87828801610872565b945050602085013567ffffffffffffffff8111156109b957600080fd5b6109c587828801610813565b935093505060406109d88782880161085d565b91505092959194509250565b600080604083850312156109f757600080fd5b6000610a0585828601610872565b9250506020610a168582860161085d565b9150509250929050565b600080600060608486031215610a3557600080fd5b6000610a4386828701610872565b9350506020610a548682870161085d565b9250506040610a658682870161085d565b9150509250925092565b60008060408385031215610a8257600080fd5b6000610a9085828601610872565b9250506020610aa185828601610872565b9150509250929050565b6000610ab78383610ba6565b60208301905092915050565b6000610acf8383610be7565b60608301905092915050565b6000610ae682610d38565b610af08185610d68565b9350610afb83610d18565b8060005b83811015610b2c578151610b138882610aab565b9750610b1e83610d4e565b925050600181019050610aff565b5085935050505092915050565b6000610b4482610d43565b610b4e8185610d79565b9350610b5983610d28565b8060005b83811015610b8a578151610b718882610ac3565b9750610b7c83610d5b565b925050600181019050610b5d565b5085935050505092915050565b610ba081610dad565b82525050565b610baf81610db9565b82525050565b610bbe81610db9565b82525050565b6000610bd1602783610d8a565b9150610bdc82610e65565b604082019050919050565b606082016000820151610bfd6000850182610c29565b506020820151610c106020850182610c29565b506040820151610c236040850182610c29565b50505050565b610c3281610de3565b82525050565b610c4181610de3565b82525050565b60006020820190508181036000830152610c618184610adb565b905092915050565b60006020820190508181036000830152610c838184610b39565b905092915050565b6000602082019050610ca06000830184610b97565b92915050565b6000602082019050610cbb6000830184610bb5565b92915050565b60006020820190508181036000830152610cda81610bc4565b9050919050565b6000606082019050610cf66000830186610c38565b610d036020830185610c38565b610d106040830184610c38565b949350505050565b6000819050602082019050919050565b6000819050602082019050919050565b600081519050919050565b600081519050919050565b6000602082019050919050565b6000602082019050919050565b600082825260208201905092915050565b600082825260208201905092915050565b600082825260208201905092915050565b6000610da682610dc3565b9050919050565b60008115159050919050565b6000819050919050565b600073ffffffffffffffffffffffffffffffffffffffff82169050919050565b6000819050919050565b6000610df882610de3565b91507fffffffffffffffffffffffffffffffffffffffffffffffffffffffffffffffff821415610e2b57610e2a610e36565b5b600182019050919050565b7f4e487b7100000000000000000000000000000000000000000000000000000000600052601160045260246000fd5b7f5468652073616d65206c65616620616c726561647920616464656420746f207460008201527f6865207472656500000000000000000000000000000000000000000000000000602082015250565b610ebd81610d9b565b8114610ec857600080fd5b50565b610ed481610db9565b8114610edf57600080fd5b50565b610eeb81610de3565b8114610ef657600080fd5b5056fea26469706673582212200a01ab182bb9068668de23c5b146de2b8d9d913ba8bdfbc62e3e92a5908faf2c64736f6c63430008040033",
  "linkReferences": {},
  "deployedLinkReferences": {}
}