{
  "_format": "hh-sol-artifact-1",
  "contractName": "Voting",
  "sourceName": "contracts/Voting.sol",
  "abi": [
    {
      "inputs": [
        {
          "internalType": "uint256",
          "name": "_votingId",
          "type": "uint256"
        },
        {
          "internalType": "address",
          "name": "_voter",
          "type": "address"
        }
      ],
      "name": "checkVerifiedVoter",
      "outputs": [
        {
          "internalType": "bool",
          "name": "",
          "type": "bool"
        }
      ],
      "stateMutability": "view",
      "type": "function"
    },
    {
      "inputs": [
        {
          "internalType": "uint256",
          "name": "_votingId",
          "type": "uint256"
        },
        {
          "internalType": "address",
          "name": "_voter",
          "type": "address"
        }
      ],
      "name": "checkVoterVote",
      "outputs": [
        {
          "internalType": "bool",
          "name": "",
          "type": "bool"
        }
      ],
      "stateMutability": "view",
      "type": "function"
    },
    {
      "inputs": [
        {
          "internalType": "bytes32",
          "name": "_title",
          "type": "bytes32"
        },
        {
          "internalType": "uint256",
          "name": "_duration",
          "type": "uint256"
        },
        {
          "internalType": "uint256",
          "name": "_startTime",
          "type": "uint256"
        },
        {
          "internalType": "uint256",
          "name": "_roomId",
          "type": "uint256"
        },
        {
          "internalType": "bytes32[]",
          "name": "_candidates",
          "type": "bytes32[]"
        }
      ],
      "name": "createVoting",
      "outputs": [],
      "stateMutability": "nonpayable",
      "type": "function"
    },
    {
      "inputs": [
        {
          "internalType": "uint256",
          "name": "_votingId",
          "type": "uint256"
        }
      ],
      "name": "getCandidates",
      "outputs": [
        {
          "components": [
            {
              "internalType": "uint256",
              "name": "candidateId",
              "type": "uint256"
            },
            {
              "internalType": "bytes32",
              "name": "candidate",
              "type": "bytes32"
            },
            {
              "internalType": "uint256",
              "name": "votes",
              "type": "uint256"
            }
          ],
          "internalType": "struct Voting.Candidate[]",
          "name": "",
          "type": "tuple[]"
        }
      ],
      "stateMutability": "view",
      "type": "function"
    },
    {
      "inputs": [
        {
          "internalType": "uint256",
          "name": "_votingId",
          "type": "uint256"
        }
      ],
      "name": "getHistory",
      "outputs": [
        {
          "components": [
            {
              "internalType": "address",
              "name": "voter",
              "type": "address"
            },
            {
              "internalType": "uint256",
              "name": "candidateId",
              "type": "uint256"
            },
            {
              "internalType": "uint256",
              "name": "timeStamp",
              "type": "uint256"
            }
          ],
          "internalType": "struct Voting.History[]",
          "name": "",
          "type": "tuple[]"
        }
      ],
      "stateMutability": "view",
      "type": "function"
    },
    {
      "inputs": [
        {
          "internalType": "address",
          "name": "_ballotToken",
          "type": "address"
        },
        {
          "internalType": "address",
          "name": "_voterData",
          "type": "address"
        }
      ],
      "name": "setInterface",
      "outputs": [],
      "stateMutability": "nonpayable",
      "type": "function"
    },
    {
      "inputs": [
        {
          "internalType": "uint256",
          "name": "_votingId",
          "type": "uint256"
        },
        {
          "internalType": "uint256",
          "name": "_duration",
          "type": "uint256"
        }
      ],
      "name": "startSession",
      "outputs": [],
      "stateMutability": "nonpayable",
      "type": "function"
    },
    {
      "inputs": [
        {
          "internalType": "uint256",
          "name": "_votingId",
          "type": "uint256"
        },
        {
          "internalType": "bytes32[]",
          "name": "proof",
          "type": "bytes32[]"
        },
        {
          "internalType": "bytes32",
          "name": "leaf",
          "type": "bytes32"
        }
      ],
      "name": "verifyVoter",
      "outputs": [],
      "stateMutability": "nonpayable",
      "type": "function"
    },
    {
      "inputs": [
        {
          "internalType": "uint256",
          "name": "_votingId",
          "type": "uint256"
        },
        {
          "internalType": "address",
          "name": "_voter",
          "type": "address"
        },
        {
          "internalType": "uint256",
          "name": "_candidate",
          "type": "uint256"
        }
      ],
      "name": "vote",
      "outputs": [],
      "stateMutability": "nonpayable",
      "type": "function"
    },
    {
      "inputs": [
        {
          "internalType": "uint256",
          "name": "",
          "type": "uint256"
        },
        {
          "internalType": "uint256",
          "name": "",
          "type": "uint256"
        }
      ],
      "name": "voterVerified",
      "outputs": [
        {
          "internalType": "address",
          "name": "",
          "type": "address"
        }
      ],
      "stateMutability": "view",
      "type": "function"
    },
    {
      "inputs": [],
      "name": "votingCount",
      "outputs": [
        {
          "internalType": "uint256",
          "name": "",
          "type": "uint256"
        }
      ],
      "stateMutability": "view",
      "type": "function"
    },
    {
      "inputs": [
        {
          "internalType": "uint256",
          "name": "",
          "type": "uint256"
        }
      ],
      "name": "votingDetails",
      "outputs": [
        {
          "internalType": "bytes32",
          "name": "title",
          "type": "bytes32"
        },
        {
          "internalType": "uint256",
          "name": "duration",
          "type": "uint256"
        },
        {
          "internalType": "uint256",
          "name": "startTime",
          "type": "uint256"
        },
        {
          "internalType": "uint256",
          "name": "roomId",
          "type": "uint256"
        },
        {
          "internalType": "address",
          "name": "proposer",
          "type": "address"
        }
      ],
      "stateMutability": "view",
      "type": "function"
    },
    {
      "inputs": [
        {
          "internalType": "uint256",
          "name": "",
          "type": "uint256"
        },
        {
          "internalType": "uint256",
          "name": "",
          "type": "uint256"
        }
      ],
      "name": "votingHistory",
      "outputs": [
        {
          "internalType": "address",
          "name": "voter",
          "type": "address"
        },
        {
          "internalType": "uint256",
          "name": "candidateId",
          "type": "uint256"
        },
        {
          "internalType": "uint256",
          "name": "timeStamp",
          "type": "uint256"
        }
      ],
      "stateMutability": "view",
      "type": "function"
    }
  ],
  "bytecode": "0x6080604052600160005534801561001557600080fd5b5061207e806100256000396000f3fe608060405234801561001057600080fd5b50600436106100cf5760003560e01c80634de8737c1161008c578063c8691b2a11610066578063c8691b2a14610238578063cbcf163f14610268578063d61a4bf814610284578063e6644d69146102a0576100cf565b80634de8737c146101cc57806356a256c6146101e8578063b424ab841461021a576100cf565b806302d8f2b5146100d45780630925f368146100f0578063094e271b1461012057806337d13a1b1461013c5780633e39a7a51461016c5780634805e4d31461019c575b600080fd5b6100ee60048036038101906100e99190611452565b6102d4565b005b61010a60048036038101906101059190611669565b61035a565b60405161011791906119b7565b60405180910390f35b61013a600480360381019061013591906114b7565b6103a8565b005b61015660048036038101906101519190611572565b610533565b6040516101639190611af2565b60405180910390f35b61018660048036038101906101819190611549565b6106be565b6040516101939190611aae565b60405180910390f35b6101b660048036038101906101b19190611572565b610757565b6040516101c39190611af2565b60405180910390f35b6101e660048036038101906101e191906115ae565b6108a1565b005b61020260048036038101906101fd9190611669565b610da6565b60405161021193929190611a32565b60405180910390f35b610222610e0d565b60405161022f9190611c20565b60405180910390f35b610252600480360381019061024d9190611549565b610e13565b60405161025f9190611ad0565b60405180910390f35b610282600480360381019061027d91906115fd565b610ef5565b005b61029e60048036038101906102999190611669565b611226565b005b6102ba60048036038101906102b59190611549565b611254565b6040516102cb959493929190611b0d565b60405180910390f35b81600160006101000a81548173ffffffffffffffffffffffffffffffffffffffff021916908373ffffffffffffffffffffffffffffffffffffffff16021790555080600260006101000a81548173ffffffffffffffffffffffffffffffffffffffff021916908373ffffffffffffffffffffffffffffffffffffffff1602179055505050565b6005602052816000526040600020818154811061037657600080fd5b906000526020600020016000915091509054906101000a900473ffffffffffffffffffffffffffffffffffffffff1681565b60006003600080548152602001908152602001600020905086816000018190555085816001018190555060005b838390508110156104a5578160020160405180606001604052806001846103fc9190611d0f565b815260200186868581811061043a577f4e487b7100000000000000000000000000000000000000000000000000000000600052603260045260246000fd5b9050602002013581526020016000815250908060018154018082558091505060019003906000526020600020906003020160009091909190915060008201518160000155602082015181600101556040820151816002015550508061049e90611e32565b90506103d5565b5042610e10866104b59190611d65565b6104bf9190611d0f565b8160030181905550838160040181905550338160050160006101000a81548173ffffffffffffffffffffffffffffffffffffffff021916908373ffffffffffffffffffffffffffffffffffffffff16021790555060008081548092919061052590611e32565b919050555050505050505050565b600080600060046000868152602001908152602001600020805480602002602001604051908101604052809291908181526020016000905b8282101561060757838290600052602060002090600302016040518060600160405290816000820160009054906101000a900473ffffffffffffffffffffffffffffffffffffffff1673ffffffffffffffffffffffffffffffffffffffff1673ffffffffffffffffffffffffffffffffffffffff168152602001600182015481526020016002820154815250508152602001906001019061056b565b50505050905060005b81518110156106b2578473ffffffffffffffffffffffffffffffffffffffff16828281518110610669577f4e487b7100000000000000000000000000000000000000000000000000000000600052603260045260246000fd5b60200260200101516000015173ffffffffffffffffffffffffffffffffffffffff16141561069a576001925061069f565b600092505b80806106aa90611e32565b915050610610565b50819250505092915050565b6060600060036000848152602001908152602001600020600201805480602002602001604051908101604052809291908181526020016000905b8282101561074857838290600052602060002090600302016040518060600160405290816000820154815260200160018201548152602001600282015481525050815260200190600101906106f8565b50505050905080915050919050565b6000806000600560008681526020019081526020016000208054806020026020016040519081016040528092919081815260200182805480156107ef57602002820191906000526020600020905b8160009054906101000a900473ffffffffffffffffffffffffffffffffffffffff1673ffffffffffffffffffffffffffffffffffffffff16815260200190600101908083116107a5575b5050505050905060005b8151811015610895578473ffffffffffffffffffffffffffffffffffffffff16828281518110610852577f4e487b7100000000000000000000000000000000000000000000000000000000600052603260045260246000fd5b602002602001015173ffffffffffffffffffffffffffffffffffffffff16141561087f5760019250610884565b600092505b8061088e90611e32565b90506107f9565b50819250505092915050565b600060036000858152602001908152602001600020905060006108c48585610757565b905060006108d28686610533565b90506000610e1084600101546108e89190611d65565b84600301546108f79190611d0f565b90506001151583151514610940576040517f08c379a000000000000000000000000000000000000000000000000000000000815260040161093790611ba0565b60405180910390fd5b6000151582151514610987576040517f08c379a000000000000000000000000000000000000000000000000000000000815260040161097e90611b60565b60405180910390fd5b428460030154106109cd576040517f08c379a00000000000000000000000000000000000000000000000000000000081526004016109c490611c00565b60405180910390fd5b428111610a0f576040517f08c379a0000000000000000000000000000000000000000000000000000000008152600401610a0690611b80565b60405180910390fd5b6000610a1b88876112aa565b9050600160009054906101000a900473ffffffffffffffffffffffffffffffffffffffff1673ffffffffffffffffffffffffffffffffffffffff1663095ea7b38860016040518363ffffffff1660e01b8152600401610a7b929190611a09565b602060405180830381600087803b158015610a9557600080fd5b505af1158015610aa9573d6000803e3d6000fd5b505050506040513d601f19601f82011682018060405250810190610acd919061148e565b50600160009054906101000a900473ffffffffffffffffffffffffffffffffffffffff1673ffffffffffffffffffffffffffffffffffffffff1663a9059cbb3060016040518363ffffffff1660e01b8152600401610b2c929190611a09565b602060405180830381600087803b158015610b4657600080fd5b505af1158015610b5a573d6000803e3d6000fd5b505050506040513d601f19601f82011682018060405250810190610b7e919061148e565b506000600360008a815260200190815260200160002060020190506001818381548110610bd4577f4e487b7100000000000000000000000000000000000000000000000000000000600052603260045260246000fd5b906000526020600020906003020160020154610bf09190611d0f565b818381548110610c29577f4e487b7100000000000000000000000000000000000000000000000000000000600052603260045260246000fd5b906000526020600020906003020160020181905550600460008a815260200190815260200160002060405180606001604052808a73ffffffffffffffffffffffffffffffffffffffff16815260200189815260200142815250908060018154018082558091505060019003906000526020600020906003020160009091909190915060008201518160000160006101000a81548173ffffffffffffffffffffffffffffffffffffffff021916908373ffffffffffffffffffffffffffffffffffffffff16021790555060208201518160010155604082015181600201555050600260009054906101000a900473ffffffffffffffffffffffffffffffffffffffff1673ffffffffffffffffffffffffffffffffffffffff1663a0a1174b898b8a426040518563ffffffff1660e01b8152600401610d699493929190611a69565b600060405180830381600087803b158015610d8357600080fd5b505af1158015610d97573d6000803e3d6000fd5b50505050505050505050505050565b60046020528160005260406000208181548110610dc257600080fd5b9060005260206000209060030201600091509150508060000160009054906101000a900473ffffffffffffffffffffffffffffffffffffffff16908060010154908060020154905083565b60005481565b6060600060046000848152602001908152602001600020805480602002602001604051908101604052809291908181526020016000905b82821015610ee657838290600052602060002090600302016040518060600160405290816000820160009054906101000a900473ffffffffffffffffffffffffffffffffffffffff1673ffffffffffffffffffffffffffffffffffffffff1673ffffffffffffffffffffffffffffffffffffffff1681526020016001820154815260200160028201548152505081526020019060010190610e4a565b50505050905080915050919050565b6000600260009054906101000a900473ffffffffffffffffffffffffffffffffffffffff1673ffffffffffffffffffffffffffffffffffffffff1663167580cc868686866040518563ffffffff1660e01b8152600401610f589493929190611c3b565b60206040518083038186803b158015610f7057600080fd5b505afa158015610f84573d6000803e3d6000fd5b505050506040513d601f19601f82011682018060405250810190610fa8919061148e565b90506000610fb68633610757565b90506001151582151514610fff576040517f08c379a0000000000000000000000000000000000000000000000000000000008152600401610ff690611be0565b60405180910390fd5b6000151581151514611046576040517f08c379a000000000000000000000000000000000000000000000000000000000815260040161103d90611bc0565b60405180910390fd5b60056000878152602001908152602001600020339080600181540180825580915050600190039060005260206000200160009091909190916101000a81548173ffffffffffffffffffffffffffffffffffffffff021916908373ffffffffffffffffffffffffffffffffffffffff160217905550600160009054906101000a900473ffffffffffffffffffffffffffffffffffffffff1673ffffffffffffffffffffffffffffffffffffffff1663095ea7b33060016040518363ffffffff1660e01b8152600401611118929190611a09565b602060405180830381600087803b15801561113257600080fd5b505af1158015611146573d6000803e3d6000fd5b505050506040513d601f19601f8201168201806040525081019061116a919061148e565b50600160009054906101000a900473ffffffffffffffffffffffffffffffffffffffff1673ffffffffffffffffffffffffffffffffffffffff166323b872dd303360016040518463ffffffff1660e01b81526004016111cb939291906119d2565b602060405180830381600087803b1580156111e557600080fd5b505af11580156111f9573d6000803e3d6000fd5b505050506040513d601f19601f8201168201806040525081019061121d919061148e565b50505050505050565b6000600360008481526020019081526020016000209050818160010181905550428160030181905550505050565b60036020528060005260406000206000915090508060000154908060010154908060030154908060040154908060050160009054906101000a900473ffffffffffffffffffffffffffffffffffffffff16905085565b600080600060036000868152602001908152602001600020600201805480602002602001604051908101604052809291908181526020016000905b8282101561133557838290600052602060002090600302016040518060600160405290816000820154815260200160018201548152602001600282015481525050815260200190600101906112e5565b50505050905060005b81518110156113a85784828281518110611381577f4e487b7100000000000000000000000000000000000000000000000000000000600052603260045260246000fd5b6020026020010151600001511415611397578092505b806113a190611e32565b905061133e565b50819250505092915050565b6000813590506113c381611fec565b92915050565b60008083601f8401126113db57600080fd5b8235905067ffffffffffffffff8111156113f457600080fd5b60208301915083602082028301111561140c57600080fd5b9250929050565b60008151905061142281612003565b92915050565b6000813590506114378161201a565b92915050565b60008135905061144c81612031565b92915050565b6000806040838503121561146557600080fd5b6000611473858286016113b4565b9250506020611484858286016113b4565b9150509250929050565b6000602082840312156114a057600080fd5b60006114ae84828501611413565b91505092915050565b60008060008060008060a087890312156114d057600080fd5b60006114de89828a01611428565b96505060206114ef89828a0161143d565b955050604061150089828a0161143d565b945050606061151189828a0161143d565b935050608087013567ffffffffffffffff81111561152e57600080fd5b61153a89828a016113c9565b92509250509295509295509295565b60006020828403121561155b57600080fd5b60006115698482850161143d565b91505092915050565b6000806040838503121561158557600080fd5b60006115938582860161143d565b92505060206115a4858286016113b4565b9150509250929050565b6000806000606084860312156115c357600080fd5b60006115d18682870161143d565b93505060206115e2868287016113b4565b92505060406115f38682870161143d565b9150509250925092565b6000806000806060858703121561161357600080fd5b60006116218782880161143d565b945050602085013567ffffffffffffffff81111561163e57600080fd5b61164a878288016113c9565b9350935050604061165d87828801611428565b91505092959194509250565b6000806040838503121561167c57600080fd5b600061168a8582860161143d565b925050602061169b8582860161143d565b9150509250929050565b60006116b18383611915565b60608301905092915050565b60006116c98383611957565b60608301905092915050565b6116de81611dbf565b82525050565b6116ed81611dbf565b82525050565b60006116ff8385611ccb565b93507f07ffffffffffffffffffffffffffffffffffffffffffffffffffffffffffffff83111561172e57600080fd5b60208302925061173f838584611e23565b82840190509392505050565b600061175682611c9b565b6117608185611cdc565b935061176b83611c7b565b8060005b8381101561179c57815161178388826116a5565b975061178e83611cb1565b92505060018101905061176f565b5085935050505092915050565b60006117b482611ca6565b6117be8185611ced565b93506117c983611c8b565b8060005b838110156117fa5781516117e188826116bd565b97506117ec83611cbe565b9250506001810190506117cd565b5085935050505092915050565b61181081611dd1565b82525050565b61181f81611ddd565b82525050565b61182e81611ddd565b82525050565b61183d81611e11565b82525050565b6000611850602a83611cfe565b915061185b82611eaa565b604082019050919050565b6000611873602683611cfe565b915061187e82611ef9565b604082019050919050565b6000611896601483611cfe565b91506118a182611f48565b602082019050919050565b60006118b9601883611cfe565b91506118c482611f71565b602082019050919050565b60006118dc601c83611cfe565b91506118e782611f9a565b602082019050919050565b60006118ff601e83611cfe565b915061190a82611fc3565b602082019050919050565b60608201600082015161192b6000850182611999565b50602082015161193e6020850182611816565b5060408201516119516040850182611999565b50505050565b60608201600082015161196d60008501826116d5565b5060208201516119806020850182611999565b5060408201516119936040850182611999565b50505050565b6119a281611e07565b82525050565b6119b181611e07565b82525050565b60006020820190506119cc60008301846116e4565b92915050565b60006060820190506119e760008301866116e4565b6119f460208301856116e4565b611a016040830184611834565b949350505050565b6000604082019050611a1e60008301856116e4565b611a2b6020830184611834565b9392505050565b6000606082019050611a4760008301866116e4565b611a5460208301856119a8565b611a6160408301846119a8565b949350505050565b6000608082019050611a7e60008301876116e4565b611a8b60208301866119a8565b611a9860408301856119a8565b611aa560608301846119a8565b95945050505050565b60006020820190508181036000830152611ac8818461174b565b905092915050565b60006020820190508181036000830152611aea81846117a9565b905092915050565b6000602082019050611b076000830184611807565b92915050565b600060a082019050611b226000830188611825565b611b2f60208301876119a8565b611b3c60408301866119a8565b611b4960608301856119a8565b611b5660808301846116e4565b9695505050505050565b60006020820190508181036000830152611b7981611843565b9050919050565b60006020820190508181036000830152611b9981611866565b9050919050565b60006020820190508181036000830152611bb981611889565b9050919050565b60006020820190508181036000830152611bd9816118ac565b9050919050565b60006020820190508181036000830152611bf9816118cf565b9050919050565b60006020820190508181036000830152611c19816118f2565b9050919050565b6000602082019050611c3560008301846119a8565b92915050565b6000606082019050611c5060008301876119a8565b8181036020830152611c638185876116f3565b9050611c726040830184611825565b95945050505050565b6000819050602082019050919050565b6000819050602082019050919050565b600081519050919050565b600081519050919050565b6000602082019050919050565b6000602082019050919050565b600082825260208201905092915050565b600082825260208201905092915050565b600082825260208201905092915050565b600082825260208201905092915050565b6000611d1a82611e07565b9150611d2583611e07565b9250827fffffffffffffffffffffffffffffffffffffffffffffffffffffffffffffffff03821115611d5a57611d59611e7b565b5b828201905092915050565b6000611d7082611e07565b9150611d7b83611e07565b9250817fffffffffffffffffffffffffffffffffffffffffffffffffffffffffffffffff0483118215151615611db457611db3611e7b565b5b828202905092915050565b6000611dca82611de7565b9050919050565b60008115159050919050565b6000819050919050565b600073ffffffffffffffffffffffffffffffffffffffff82169050919050565b6000819050919050565b6000611e1c82611e07565b9050919050565b82818337600083830152505050565b6000611e3d82611e07565b91507fffffffffffffffffffffffffffffffffffffffffffffffffffffffffffffffff821415611e7057611e6f611e7b565b5b600182019050919050565b7f4e487b7100000000000000000000000000000000000000000000000000000000600052601160045260246000fd5b7f596f7520616c726561647920766f74656420746f206f6e65206f66207468652060008201527f63616e6469646174657300000000000000000000000000000000000000000000602082015250565b7f4475726174696f6e206f662074686520766f74696e672073657373696f6e206960008201527f73206f7665720000000000000000000000000000000000000000000000000000602082015250565b7f596f7520617265206e6f74207665726966696564000000000000000000000000600082015250565b7f596f752061726520616c72656164792076657269666965640000000000000000600082015250565b7f596f7520617265206e6f74206120766572696669656420766f74657200000000600082015250565b7f566f74696e672073657373696f6e20686173206e6f7420737461727465640000600082015250565b611ff581611dbf565b811461200057600080fd5b50565b61200c81611dd1565b811461201757600080fd5b50565b61202381611ddd565b811461202e57600080fd5b50565b61203a81611e07565b811461204557600080fd5b5056fea2646970667358221220ab04ac4aa77d2aa543c51a85daec0c9c55be36bf8da4070a51b7982f82c75e2b64736f6c63430008040033",
  "linkReferences": {},
  "deployedLinkReferences": {}
}